{
  "_format": "hh-sol-artifact-1",
  "contractName": "VendorTrainer",
  "sourceName": "contracts/VendorTrainer.sol",
  "abi": [
    {
      "inputs": [
        {
          "internalType": "string",
          "name": "email",
          "type": "string"
        },
        {
          "internalType": "string",
          "name": "tech",
          "type": "string"
        },
        {
          "internalType": "string",
          "name": "moble",
          "type": "string"
        }
      ],
      "name": "checkTrainerExists",
      "outputs": [
        {
          "internalType": "bool",
          "name": "",
          "type": "bool"
        }
      ],
      "stateMutability": "view",
      "type": "function"
    },
    {
      "inputs": [
        {
          "internalType": "string",
          "name": "_name",
          "type": "string"
        },
        {
          "internalType": "string",
          "name": "_email",
          "type": "string"
        },
        {
          "internalType": "string",
          "name": "_mobille",
          "type": "string"
        },
        {
          "internalType": "string",
          "name": "_tech",
          "type": "string"
        },
        {
          "internalType": "string",
          "name": "_url",
          "type": "string"
        }
      ],
      "name": "registerTrainer",
      "outputs": [
        {
          "internalType": "bool",
          "name": "",
          "type": "bool"
        }
      ],
      "stateMutability": "nonpayable",
      "type": "function"
    },
    {
      "inputs": [
        {
          "internalType": "string",
          "name": "_name",
          "type": "string"
        },
        {
          "internalType": "string",
          "name": "_email",
          "type": "string"
        },
        {
          "internalType": "string",
          "name": "_phone",
          "type": "string"
        }
      ],
      "name": "registerVendor",
      "outputs": [
        {
          "internalType": "bool",
          "name": "",
          "type": "bool"
        }
      ],
      "stateMutability": "nonpayable",
      "type": "function"
    },
    {
      "inputs": [
        {
          "internalType": "address",
          "name": "",
          "type": "address"
        }
      ],
      "name": "vendorExists",
      "outputs": [
        {
          "internalType": "bool",
          "name": "",
          "type": "bool"
        }
      ],
      "stateMutability": "view",
      "type": "function"
    }
  ],
  "bytecode": "0x608060405234801561001057600080fd5b50610dbd806100206000396000f3fe608060405234801561001057600080fd5b506004361061004c5760003560e01c80632f695a0f146100515780635c05873814610081578063876a7e7c146100b1578063c61896ec146100e1575b600080fd5b61006b600480360381019061006691906108de565b610111565b6040516100789190610ae4565b60405180910390f35b61009b6004803603810190610096919061081e565b61044e565b6040516100a89190610ae4565b60405180910390f35b6100cb60048036038101906100c69190610847565b61046e565b6040516100d89190610ae4565b60405180910390f35b6100fb60048036038101906100f69190610847565b61065b565b6040516101089190610ae4565b60405180910390f35b6000600160003373ffffffffffffffffffffffffffffffffffffffff1673ffffffffffffffffffffffffffffffffffffffff16815260200190815260200160002060009054906101000a900460ff1661019f576040517f08c379a000000000000000000000000000000000000000000000000000000000815260040161019690610b1f565b60405180910390fd5b6002856040516101af9190610acd565b9081526020016040518091039020836040516101cb9190610acd565b908152602001604051809103902060009054906101000a900460ff1615610227576040517f08c379a000000000000000000000000000000000000000000000000000000000815260040161021e90610b3f565b60405180910390fd5b6002846040516102379190610acd565b9081526020016040518091039020836040516102539190610acd565b908152602001604051809103902060009054906101000a900460ff16156102af576040517f08c379a00000000000000000000000000000000000000000000000000000000081526004016102a690610b3f565b60405180910390fd5b6001600060048282829054906101000a900463ffffffff166102d19190610be7565b92506101000a81548163ffffffff021916908363ffffffff1602179055506000600560008060049054906101000a900463ffffffff1663ffffffff1681526020019081526020016000209050868160000190805190602001906103359291906106fe565b508581600101908051906020019061034e9291906106fe565b50848160020190805190602001906103679291906106fe565b50838160040190805190602001906103809291906106fe565b50828160030190805190602001906103999291906106fe565b5060016002876040516103ac9190610acd565b9081526020016040518091039020856040516103c89190610acd565b908152602001604051809103902060006101000a81548160ff02191690831515021790555060016003866040516103ff9190610acd565b90815260200160405180910390208560405161041b9190610acd565b908152602001604051809103902060006101000a81548160ff021916908315150217905550600191505095945050505050565b60016020528060005260406000206000915054906101000a900460ff1681565b6000600160003373ffffffffffffffffffffffffffffffffffffffff1673ffffffffffffffffffffffffffffffffffffffff16815260200190815260200160002060009054906101000a900460ff16156104fd576040517f08c379a00000000000000000000000000000000000000000000000000000000081526004016104f490610aff565b60405180910390fd5b60016000808282829054906101000a900463ffffffff1661051e9190610be7565b92506101000a81548163ffffffff021916908363ffffffff1602179055506000600460008060009054906101000a900463ffffffff1663ffffffff1681526020019081526020016000209050848160020190805190602001906105829291906106fe565b508381600001908051906020019061059b9291906106fe565b50828160010190805190602001906105b49291906106fe565b50338160030160006101000a81548173ffffffffffffffffffffffffffffffffffffffff021916908373ffffffffffffffffffffffffffffffffffffffff16021790555060018060003373ffffffffffffffffffffffffffffffffffffffff1673ffffffffffffffffffffffffffffffffffffffff16815260200190815260200160002060006101000a81548160ff02191690831515021790555060019150509392505050565b600060028460405161066d9190610acd565b9081526020016040518091039020836040516106899190610acd565b908152602001604051809103902060009054906101000a900460ff1680156106f557506003826040516106bc9190610acd565b9081526020016040518091039020836040516106d89190610acd565b908152602001604051809103902060009054906101000a900460ff165b90509392505050565b82805461070a90610cb1565b90600052602060002090601f01602090048101928261072c5760008555610773565b82601f1061074557805160ff1916838001178555610773565b82800160010185558215610773579182015b82811115610772578251825591602001919060010190610757565b5b5090506107809190610784565b5090565b5b8082111561079d576000816000905550600101610785565b5090565b60006107b46107af84610b90565b610b5f565b9050828152602081018484840111156107cc57600080fd5b6107d7848285610c6f565b509392505050565b6000813590506107ee81610d70565b92915050565b600082601f83011261080557600080fd5b81356108158482602086016107a1565b91505092915050565b60006020828403121561083057600080fd5b600061083e848285016107df565b91505092915050565b60008060006060848603121561085c57600080fd5b600084013567ffffffffffffffff81111561087657600080fd5b610882868287016107f4565b935050602084013567ffffffffffffffff81111561089f57600080fd5b6108ab868287016107f4565b925050604084013567ffffffffffffffff8111156108c857600080fd5b6108d4868287016107f4565b9150509250925092565b600080600080600060a086880312156108f657600080fd5b600086013567ffffffffffffffff81111561091057600080fd5b61091c888289016107f4565b955050602086013567ffffffffffffffff81111561093957600080fd5b610945888289016107f4565b945050604086013567ffffffffffffffff81111561096257600080fd5b61096e888289016107f4565b935050606086013567ffffffffffffffff81111561098b57600080fd5b610997888289016107f4565b925050608086013567ffffffffffffffff8111156109b457600080fd5b6109c0888289016107f4565b9150509295509295909350565b6109d681610c33565b82525050565b60006109e782610bc0565b6109f18185610bdc565b9350610a01818560208601610c7e565b80840191505092915050565b6000610a1a601583610bcb565b91507f56656e646f7220416c72656164792045786973747300000000000000000000006000830152602082019050919050565b6000610a5a601283610bcb565b91507f56656e646f72204e6f74202045786973747300000000000000000000000000006000830152602082019050919050565b6000610a9a601683610bcb565b91507f547261696e657220416c726561647920457869737473000000000000000000006000830152602082019050919050565b6000610ad982846109dc565b915081905092915050565b6000602082019050610af960008301846109cd565b92915050565b60006020820190508181036000830152610b1881610a0d565b9050919050565b60006020820190508181036000830152610b3881610a4d565b9050919050565b60006020820190508181036000830152610b5881610a8d565b9050919050565b6000604051905081810181811067ffffffffffffffff82111715610b8657610b85610d41565b5b8060405250919050565b600067ffffffffffffffff821115610bab57610baa610d41565b5b601f19601f8301169050602081019050919050565b600081519050919050565b600082825260208201905092915050565b600081905092915050565b6000610bf282610c5f565b9150610bfd83610c5f565b92508263ffffffff03821115610c1657610c15610ce3565b5b828201905092915050565b6000610c2c82610c3f565b9050919050565b60008115159050919050565b600073ffffffffffffffffffffffffffffffffffffffff82169050919050565b600063ffffffff82169050919050565b82818337600083830152505050565b60005b83811015610c9c578082015181840152602081019050610c81565b83811115610cab576000848401525b50505050565b60006002820490506001821680610cc957607f821691505b60208210811415610cdd57610cdc610d12565b5b50919050565b7f4e487b7100000000000000000000000000000000000000000000000000000000600052601160045260246000fd5b7f4e487b7100000000000000000000000000000000000000000000000000000000600052602260045260246000fd5b7f4e487b7100000000000000000000000000000000000000000000000000000000600052604160045260246000fd5b610d7981610c21565b8114610d8457600080fd5b5056fea26469706673582212209deb6dc498d5c6d87ceb3fd56a20288966bcea7bd484db04c282e0dd9b5dc68164736f6c63430008000033",
  "linkReferences": {},
  "deployedLinkReferences": {}
}